{
  "contractName": "CertManager",
  "abi": [
    {
      "inputs": [],
      "stateMutability": "nonpayable",
      "type": "constructor"
    },
    {
      "anonymous": false,
      "inputs": [
        {
          "indexed": false,
          "internalType": "string",
          "name": "cert_id",
          "type": "string"
        },
        {
          "indexed": false,
          "internalType": "address",
          "name": "owner",
          "type": "address"
        },
        {
          "indexed": false,
          "internalType": "address",
          "name": "recipient",
          "type": "address"
        }
      ],
      "name": "CertIssued",
      "type": "event"
    },
    {
      "anonymous": false,
      "inputs": [
        {
          "indexed": false,
          "internalType": "string",
          "name": "cert_id",
          "type": "string"
        },
        {
          "indexed": false,
          "internalType": "address",
          "name": "owner",
          "type": "address"
        }
      ],
      "name": "CertRevoked",
      "type": "event"
    },
    {
      "inputs": [],
      "name": "certCount",
      "outputs": [
        {
          "internalType": "uint256",
          "name": "",
          "type": "uint256"
        }
      ],
      "stateMutability": "view",
      "type": "function",
      "constant": true
    },
    {
      "inputs": [
        {
          "internalType": "string",
          "name": "",
          "type": "string"
        }
      ],
      "name": "certificates",
      "outputs": [
        {
          "internalType": "string",
          "name": "cert_id",
          "type": "string"
        },
        {
          "internalType": "address",
          "name": "owner",
          "type": "address"
        },
        {
          "internalType": "address",
          "name": "recipient",
          "type": "address"
        },
        {
          "internalType": "uint256",
          "name": "date",
          "type": "uint256"
        },
        {
          "internalType": "bool",
          "name": "revoked",
          "type": "bool"
        }
      ],
      "stateMutability": "view",
      "type": "function",
      "constant": true
    },
    {
      "inputs": [
        {
          "internalType": "string",
          "name": "",
          "type": "string"
        }
      ],
      "name": "doesExist",
      "outputs": [
        {
          "internalType": "bool",
          "name": "",
          "type": "bool"
        }
      ],
      "stateMutability": "view",
      "type": "function",
      "constant": true
    },
    {
      "inputs": [],
      "name": "shareCount",
      "outputs": [
        {
          "internalType": "uint256",
          "name": "",
          "type": "uint256"
        }
      ],
      "stateMutability": "view",
      "type": "function",
      "constant": true
    },
    {
      "inputs": [],
      "name": "verifiedCount",
      "outputs": [
        {
          "internalType": "uint256",
          "name": "",
          "type": "uint256"
        }
      ],
      "stateMutability": "view",
      "type": "function",
      "constant": true
    },
    {
      "inputs": [
        {
          "internalType": "string",
          "name": "id",
          "type": "string"
        },
        {
          "internalType": "address",
          "name": "cert_recipient",
          "type": "address"
        }
      ],
      "name": "issueCert",
      "outputs": [],
      "stateMutability": "nonpayable",
      "type": "function"
    },
    {
      "inputs": [
        {
          "internalType": "string",
          "name": "id",
          "type": "string"
        }
      ],
      "name": "revokeCert",
      "outputs": [],
      "stateMutability": "nonpayable",
      "type": "function"
    },
    {
      "inputs": [
        {
          "internalType": "string",
          "name": "id",
          "type": "string"
        }
      ],
      "name": "verifyCertificate",
      "outputs": [
        {
          "internalType": "bool",
          "name": "exists",
          "type": "bool"
        },
        {
          "internalType": "bool",
          "name": "revoked",
          "type": "bool"
        }
      ],
      "stateMutability": "nonpayable",
      "type": "function"
    },
    {
      "inputs": [
        {
          "internalType": "string",
          "name": "id",
          "type": "string"
        }
      ],
      "name": "getCertDetails",
      "outputs": [
        {
          "internalType": "address",
          "name": "owner",
          "type": "address"
        },
        {
          "internalType": "address",
          "name": "recipient",
          "type": "address"
        },
        {
          "internalType": "bool",
          "name": "revoked",
          "type": "bool"
        }
      ],
      "stateMutability": "view",
      "type": "function",
      "constant": true
    },
    {
      "inputs": [],
      "name": "countIssued",
      "outputs": [
        {
          "internalType": "uint256",
          "name": "",
          "type": "uint256"
        }
      ],
      "stateMutability": "view",
      "type": "function",
      "constant": true
    },
    {
      "inputs": [],
      "name": "countVerified",
      "outputs": [
        {
          "internalType": "uint256",
          "name": "",
          "type": "uint256"
        }
      ],
      "stateMutability": "view",
      "type": "function",
      "constant": true
    },
    {
      "inputs": [],
      "name": "countShares",
      "outputs": [
        {
          "internalType": "uint256",
          "name": "",
          "type": "uint256"
        }
      ],
      "stateMutability": "view",
      "type": "function",
      "constant": true
    }
  ],
  "bytecode": "0x608060405234801561001057600080fd5b5060006002819055506000600381905550600060048190555061125d806100386000396000f3fe608060405234801561001057600080fd5b50600436106100b45760003560e01c80639830308a116100715780639830308a146101a6578063be2e2325146101c4578063ca904022146101f6578063d4e207a214610214578063e0eb38d614610232578063e9b6925b1461024e576100b4565b8063496144cd146100b95780636bfe4ec2146100d55780637f03864b146100f35780638b23d875146101115780638f2b91ea1461014257806394bbde2a14610176575b600080fd5b6100d360048036038101906100ce9190610c05565b61026c565b005b6100dd6104b1565b6040516100ea9190610fca565b60405180910390f35b6100fb6104b7565b6040516101089190610fca565b60405180910390f35b61012b60048036038101906101269190610bc4565b6104bd565b604051610139929190610e59565b60405180910390f35b61015c60048036038101906101579190610bc4565b61057d565b60405161016d959493929190610ef0565b60405180910390f35b610190600480360381019061018b9190610bc4565b61069e565b60405161019d9190610e3e565b60405180910390f35b6101ae6106d4565b6040516101bb9190610fca565b60405180910390f35b6101de60048036038101906101d99190610bc4565b6106de565b6040516101ed93929190610e07565b60405180910390f35b6101fe6108fa565b60405161020b9190610fca565b60405180910390f35b61021c610904565b6040516102299190610fca565b60405180910390f35b61024c60048036038101906102479190610bc4565b61090a565b005b610256610a9a565b6040516102639190610fca565b60405180910390f35b60018260405161027c9190610df0565b908152602001604051809103902060009054906101000a900460ff16156102d8576040517f08c379a00000000000000000000000000000000000000000000000000000000081526004016102cf90610faa565b60405180910390fd5b6040518060a001604052808381526020013373ffffffffffffffffffffffffffffffffffffffff1681526020018273ffffffffffffffffffffffffffffffffffffffff1681526020014281526020016000151581525060008360405161033e9190610df0565b90815260200160405180910390206000820151816000019080519060200190610368929190610aa4565b5060208201518160010160006101000a81548173ffffffffffffffffffffffffffffffffffffffff021916908373ffffffffffffffffffffffffffffffffffffffff16021790555060408201518160020160006101000a81548173ffffffffffffffffffffffffffffffffffffffff021916908373ffffffffffffffffffffffffffffffffffffffff1602179055506060820151816003015560808201518160040160006101000a81548160ff021916908315150217905550905050600180836040516104359190610df0565b908152602001604051809103902060006101000a81548160ff0219169083151502179055506002600081548092919061046d90611129565b91905055507fdfa30a43560525881cf6364d38c7d6febf2b442877de474f0af29881710a37fd8233836040516104a593929190610eb2565b60405180910390a15050565b60035481565b60045481565b6000806001836040516104d09190610df0565b908152602001604051809103902060009054906101000a900460ff1661052b576040517f08c379a000000000000000000000000000000000000000000000000000000000815260040161052290610f8a565b60405180910390fd5b6003600081548092919061053e90611129565b919050555060016000846040516105559190610df0565b908152602001604051809103902060040160009054906101000a900460ff1691509150915091565b6000818051602081018201805184825260208301602085012081835280955050505050506000915090508060000180546105b6906110f7565b80601f01602080910402602001604051908101604052809291908181526020018280546105e2906110f7565b801561062f5780601f106106045761010080835404028352916020019161062f565b820191906000526020600020905b81548152906001019060200180831161061257829003601f168201915b5050505050908060010160009054906101000a900473ffffffffffffffffffffffffffffffffffffffff16908060020160009054906101000a900473ffffffffffffffffffffffffffffffffffffffff16908060030154908060040160009054906101000a900460ff16905085565b6001818051602081018201805184825260208301602085012081835280955050505050506000915054906101000a900460ff1681565b6000600254905090565b60008060006001846040516106f39190610df0565b908152602001604051809103902060009054906101000a900460ff1661074e576040517f08c379a000000000000000000000000000000000000000000000000000000000815260040161074590610f8a565b60405180910390fd5b6000808560405161075f9190610df0565b90815260200160405180910390206040518060a0016040529081600082018054610788906110f7565b80601f01602080910402602001604051908101604052809291908181526020018280546107b4906110f7565b80156108015780601f106107d657610100808354040283529160200191610801565b820191906000526020600020905b8154815290600101906020018083116107e457829003601f168201915b505050505081526020016001820160009054906101000a900473ffffffffffffffffffffffffffffffffffffffff1673ffffffffffffffffffffffffffffffffffffffff1673ffffffffffffffffffffffffffffffffffffffff1681526020016002820160009054906101000a900473ffffffffffffffffffffffffffffffffffffffff1673ffffffffffffffffffffffffffffffffffffffff1673ffffffffffffffffffffffffffffffffffffffff168152602001600382015481526020016004820160009054906101000a900460ff1615151515815250509050806020015181604001518260800151935093509350509193909250565b6000600354905090565b60025481565b60018160405161091a9190610df0565b908152602001604051809103902060009054906101000a900460ff16610975576040517f08c379a000000000000000000000000000000000000000000000000000000000815260040161096c90610f6a565b60405180910390fd5b3373ffffffffffffffffffffffffffffffffffffffff1660008260405161099c9190610df0565b908152602001604051809103902060010160009054906101000a900473ffffffffffffffffffffffffffffffffffffffff1673ffffffffffffffffffffffffffffffffffffffff1614610a24576040517f08c379a0000000000000000000000000000000000000000000000000000000008152600401610a1b90610f4a565b60405180910390fd5b6001600082604051610a369190610df0565b908152602001604051809103902060040160006101000a81548160ff0219169083151502179055507ff8851a4de80d939fe406a2775ee247e01a917a766cda47825933a3c35b2496808133604051610a8f929190610e82565b60405180910390a150565b6000600454905090565b828054610ab0906110f7565b90600052602060002090601f016020900481019282610ad25760008555610b19565b82601f10610aeb57805160ff1916838001178555610b19565b82800160010185558215610b19579182015b82811115610b18578251825591602001919060010190610afd565b5b509050610b269190610b2a565b5090565b5b80821115610b43576000816000905550600101610b2b565b5090565b6000610b5a610b5584611016565b610fe5565b905082815260208101848484011115610b7257600080fd5b610b7d8482856110b5565b509392505050565b600081359050610b9481611210565b92915050565b600082601f830112610bab57600080fd5b8135610bbb848260208601610b47565b91505092915050565b600060208284031215610bd657600080fd5b600082013567ffffffffffffffff811115610bf057600080fd5b610bfc84828501610b9a565b91505092915050565b60008060408385031215610c1857600080fd5b600083013567ffffffffffffffff811115610c3257600080fd5b610c3e85828601610b9a565b9250506020610c4f85828601610b85565b9150509250929050565b610c628161106d565b82525050565b610c718161107f565b82525050565b6000610c8282611046565b610c8c8185611051565b9350610c9c8185602086016110c4565b610ca5816111ff565b840191505092915050565b6000610cbb82611046565b610cc58185611062565b9350610cd58185602086016110c4565b80840191505092915050565b6000610cee601683611051565b91507f4e6f74204f776e6572206f6620746869732063657274000000000000000000006000830152602082019050919050565b6000610d2e601983611051565b91507f436572746966696361746520646f65736e2774206578697374000000000000006000830152602082019050919050565b6000610d6e601a83611051565b91507f436572746966696361746520646f6573206e6f742065786973740000000000006000830152602082019050919050565b6000610dae601a83611051565b91507f436572746966696361746520616c7265616479206578697374730000000000006000830152602082019050919050565b610dea816110ab565b82525050565b6000610dfc8284610cb0565b915081905092915050565b6000606082019050610e1c6000830186610c59565b610e296020830185610c59565b610e366040830184610c68565b949350505050565b6000602082019050610e536000830184610c68565b92915050565b6000604082019050610e6e6000830185610c68565b610e7b6020830184610c68565b9392505050565b60006040820190508181036000830152610e9c8185610c77565b9050610eab6020830184610c59565b9392505050565b60006060820190508181036000830152610ecc8186610c77565b9050610edb6020830185610c59565b610ee86040830184610c59565b949350505050565b600060a0820190508181036000830152610f0a8188610c77565b9050610f196020830187610c59565b610f266040830186610c59565b610f336060830185610de1565b610f406080830184610c68565b9695505050505050565b60006020820190508181036000830152610f6381610ce1565b9050919050565b60006020820190508181036000830152610f8381610d21565b9050919050565b60006020820190508181036000830152610fa381610d61565b9050919050565b60006020820190508181036000830152610fc381610da1565b9050919050565b6000602082019050610fdf6000830184610de1565b92915050565b6000604051905081810181811067ffffffffffffffff8211171561100c5761100b6111d0565b5b8060405250919050565b600067ffffffffffffffff821115611031576110306111d0565b5b601f19601f8301169050602081019050919050565b600081519050919050565b600082825260208201905092915050565b600081905092915050565b60006110788261108b565b9050919050565b60008115159050919050565b600073ffffffffffffffffffffffffffffffffffffffff82169050919050565b6000819050919050565b82818337600083830152505050565b60005b838110156110e25780820151818401526020810190506110c7565b838111156110f1576000848401525b50505050565b6000600282049050600182168061110f57607f821691505b60208210811415611123576111226111a1565b5b50919050565b6000611134826110ab565b91507fffffffffffffffffffffffffffffffffffffffffffffffffffffffffffffffff82141561116757611166611172565b5b600182019050919050565b7f4e487b7100000000000000000000000000000000000000000000000000000000600052601160045260246000fd5b7f4e487b7100000000000000000000000000000000000000000000000000000000600052602260045260246000fd5b7f4e487b7100000000000000000000000000000000000000000000000000000000600052604160045260246000fd5b6000601f19601f8301169050919050565b6112198161106d565b811461122457600080fd5b5056fea2646970667358221220e79f2b1adf96471269752f34800486e949a74b7137a4f5337a486b5dc5690b8a64736f6c63430008000033",
  "immutableReferences": {},
  "source": "// SPDX-License-Identifier: Unlicense\r\npragma solidity ^0.8.0;\r\n\r\ncontract CertManager {\r\n    struct Cert {\r\n        string cert_id;\r\n        address owner;\r\n        address recipient;\r\n        uint256 date;\r\n        bool revoked;\r\n    }\r\n\r\n    mapping(string => Cert) public certificates;\r\n    mapping(string => bool) public doesExist;\r\n\r\n    event CertIssued(string cert_id, address owner, address recipient);\r\n    event CertRevoked(string cert_id, address owner);\r\n\r\n    uint256 public certCount;\r\n    uint256 public verifiedCount;\r\n    uint256 public shareCount;\r\n\r\n    constructor() {\r\n        certCount = 0;\r\n        verifiedCount = 0;\r\n        shareCount= 0;\r\n    }\r\n\r\n    function issueCert(string memory id, address cert_recipient) public {\r\n        require(!doesExist[id], \"Certificate already exists\");\r\n\r\n        certificates[id] = Cert({\r\n            cert_id: id,\r\n            owner: msg.sender,\r\n            recipient: cert_recipient,\r\n            date: block.timestamp,\r\n            revoked: false\r\n        });\r\n        doesExist[id] = true;\r\n        certCount++;\r\n        emit CertIssued(id, msg.sender, cert_recipient);\r\n    }\r\n\r\n    function revokeCert(string memory id) public {\r\n        require(doesExist[id], \"Certificate doesn't exist\");\r\n        require(certificates[id].owner == msg.sender, \"Not Owner of this cert\");\r\n        certificates[id].revoked = true;\r\n        emit CertRevoked(id, msg.sender);\r\n    }\r\n\r\n    function verifyCertificate(string memory id) public returns (bool exists, bool revoked) {\r\n        require(doesExist[id], \"Certificate does not exist\");\r\n        verifiedCount++;\r\n        return (true, certificates[id].revoked);\r\n    }   \r\n\r\n\r\n    function getCertDetails(string memory id) public view returns (address owner, address recipient, bool revoked) {\r\n        require(doesExist[id], \"Certificate does not exist\");\r\n        Cert memory cert = certificates[id];\r\n        return (cert.owner, cert.recipient, cert.revoked);\r\n    }\r\n\r\n    function countIssued () public view returns (uint256){\r\n        return certCount;\r\n    }\r\n\r\n    function countVerified () public view returns (uint256){\r\n        return verifiedCount;\r\n    }\r\n\r\n    function countShares () public view returns (uint256){\r\n        return shareCount;\r\n    }\r\n}\r\n",
  "sourcePath": "C:\\Users\\dhruv\\Downloads\\University\\CSC 196D\\FInal Project\\DAAPer---CSC196D\\contracts\\CertManager.sol",
  "compiler": {
    "name": "solc",
    "version": "0.8.0+commit.c7dfd78e.Emscripten.clang"
  },
  "schemaVersion": "3.4.16",
  "updatedAt": "2024-11-30T21:04:18.089Z",
  "networkType": "ethereum",
  "devdoc": {
    "kind": "dev",
    "methods": {},
    "version": 1
  },
  "userdoc": {
    "kind": "user",
    "methods": {},
    "version": 1
  }
}