{
  "contractName": "CertManager",
  "abi": [
    {
      "inputs": [],
      "stateMutability": "nonpayable",
      "type": "constructor"
    },
    {
      "anonymous": false,
      "inputs": [
        {
          "indexed": false,
          "internalType": "string",
          "name": "cert_id",
          "type": "string"
        },
        {
          "indexed": false,
          "internalType": "address",
          "name": "owner",
          "type": "address"
        },
        {
          "indexed": false,
          "internalType": "address",
          "name": "recipient",
          "type": "address"
        }
      ],
      "name": "CertIssued",
      "type": "event"
    },
    {
      "anonymous": false,
      "inputs": [
        {
          "indexed": false,
          "internalType": "string",
          "name": "cert_id",
          "type": "string"
        },
        {
          "indexed": false,
          "internalType": "address",
          "name": "owner",
          "type": "address"
        }
      ],
      "name": "CertRevoked",
      "type": "event"
    },
    {
      "inputs": [
        {
          "internalType": "string",
          "name": "",
          "type": "string"
        }
      ],
      "name": "certificates",
      "outputs": [
        {
          "internalType": "string",
          "name": "cert_id",
          "type": "string"
        },
        {
          "internalType": "address",
          "name": "owner",
          "type": "address"
        },
        {
          "internalType": "address",
          "name": "recipient",
          "type": "address"
        },
        {
          "internalType": "uint256",
          "name": "date",
          "type": "uint256"
        },
        {
          "internalType": "bool",
          "name": "revoked",
          "type": "bool"
        }
      ],
      "stateMutability": "view",
      "type": "function",
      "constant": true
    },
    {
      "inputs": [
        {
          "internalType": "string",
          "name": "",
          "type": "string"
        }
      ],
      "name": "doesExist",
      "outputs": [
        {
          "internalType": "bool",
          "name": "",
          "type": "bool"
        }
      ],
      "stateMutability": "view",
      "type": "function",
      "constant": true
    },
    {
      "inputs": [
        {
          "internalType": "string",
          "name": "id",
          "type": "string"
        },
        {
          "internalType": "address",
          "name": "cert_recipient",
          "type": "address"
        }
      ],
      "name": "issueCert",
      "outputs": [],
      "stateMutability": "nonpayable",
      "type": "function"
    },
    {
      "inputs": [
        {
          "internalType": "string",
          "name": "id",
          "type": "string"
        }
      ],
      "name": "revokeCert",
      "outputs": [],
      "stateMutability": "nonpayable",
      "type": "function"
    },
    {
      "inputs": [
        {
          "internalType": "string",
          "name": "id",
          "type": "string"
        }
      ],
      "name": "verifyCertificate",
      "outputs": [
        {
          "internalType": "bool",
          "name": "exists",
          "type": "bool"
        },
        {
          "internalType": "bool",
          "name": "revoked",
          "type": "bool"
        }
      ],
      "stateMutability": "view",
      "type": "function",
      "constant": true
    },
    {
      "inputs": [
        {
          "internalType": "string",
          "name": "id",
          "type": "string"
        }
      ],
      "name": "getCertDetails",
      "outputs": [
        {
          "internalType": "address",
          "name": "owner",
          "type": "address"
        },
        {
          "internalType": "address",
          "name": "recipient",
          "type": "address"
        },
        {
          "internalType": "bool",
          "name": "revoked",
          "type": "bool"
        }
      ],
      "stateMutability": "view",
      "type": "function",
      "constant": true
    }
  ],
  "bytecode": "0x608060405234801561001057600080fd5b50611064806100206000396000f3fe608060405234801561001057600080fd5b50600436106100625760003560e01c8063496144cd146100675780638b23d875146100835780638f2b91ea146100b457806394bbde2a146100e8578063be2e232514610118578063e0eb38d61461014a575b600080fd5b610081600480360381019061007c9190610a9f565b610166565b005b61009d60048036038101906100989190610a5e565b610393565b6040516100ab929190610cf3565b60405180910390f35b6100ce60048036038101906100c99190610a5e565b61043b565b6040516100df959493929190610d8a565b60405180910390f35b61010260048036038101906100fd9190610a5e565b61055c565b60405161010f9190610cd8565b60405180910390f35b610132600480360381019061012d9190610a5e565b610592565b60405161014193929190610ca1565b60405180910390f35b610164600480360381019061015f9190610a5e565b6107ae565b005b6001826040516101769190610c8a565b908152602001604051809103902060009054906101000a900460ff16156101d2576040517f08c379a00000000000000000000000000000000000000000000000000000000081526004016101c990610e44565b60405180910390fd5b6040518060a001604052808381526020013373ffffffffffffffffffffffffffffffffffffffff1681526020018273ffffffffffffffffffffffffffffffffffffffff168152602001428152602001600015158152506000836040516102389190610c8a565b9081526020016040518091039020600082015181600001908051906020019061026292919061093e565b5060208201518160010160006101000a81548173ffffffffffffffffffffffffffffffffffffffff021916908373ffffffffffffffffffffffffffffffffffffffff16021790555060408201518160020160006101000a81548173ffffffffffffffffffffffffffffffffffffffff021916908373ffffffffffffffffffffffffffffffffffffffff1602179055506060820151816003015560808201518160040160006101000a81548160ff0219169083151502179055509050506001808360405161032f9190610c8a565b908152602001604051809103902060006101000a81548160ff0219169083151502179055507fdfa30a43560525881cf6364d38c7d6febf2b442877de474f0af29881710a37fd82338360405161038793929190610d4c565b60405180910390a15050565b6000806001836040516103a69190610c8a565b908152602001604051809103902060009054906101000a900460ff16610401576040517f08c379a00000000000000000000000000000000000000000000000000000000081526004016103f890610e24565b60405180910390fd5b60016000846040516104139190610c8a565b908152602001604051809103902060040160009054906101000a900460ff1691509150915091565b60008180516020810182018051848252602083016020850120818352809550505050505060009150905080600001805461047490610f76565b80601f01602080910402602001604051908101604052809291908181526020018280546104a090610f76565b80156104ed5780601f106104c2576101008083540402835291602001916104ed565b820191906000526020600020905b8154815290600101906020018083116104d057829003601f168201915b5050505050908060010160009054906101000a900473ffffffffffffffffffffffffffffffffffffffff16908060020160009054906101000a900473ffffffffffffffffffffffffffffffffffffffff16908060030154908060040160009054906101000a900460ff16905085565b6001818051602081018201805184825260208301602085012081835280955050505050506000915054906101000a900460ff1681565b60008060006001846040516105a79190610c8a565b908152602001604051809103902060009054906101000a900460ff16610602576040517f08c379a00000000000000000000000000000000000000000000000000000000081526004016105f990610e24565b60405180910390fd5b600080856040516106139190610c8a565b90815260200160405180910390206040518060a001604052908160008201805461063c90610f76565b80601f016020809104026020016040519081016040528092919081815260200182805461066890610f76565b80156106b55780601f1061068a576101008083540402835291602001916106b5565b820191906000526020600020905b81548152906001019060200180831161069857829003601f168201915b505050505081526020016001820160009054906101000a900473ffffffffffffffffffffffffffffffffffffffff1673ffffffffffffffffffffffffffffffffffffffff1673ffffffffffffffffffffffffffffffffffffffff1681526020016002820160009054906101000a900473ffffffffffffffffffffffffffffffffffffffff1673ffffffffffffffffffffffffffffffffffffffff1673ffffffffffffffffffffffffffffffffffffffff168152602001600382015481526020016004820160009054906101000a900460ff1615151515815250509050806020015181604001518260800151935093509350509193909250565b6001816040516107be9190610c8a565b908152602001604051809103902060009054906101000a900460ff16610819576040517f08c379a000000000000000000000000000000000000000000000000000000000815260040161081090610e04565b60405180910390fd5b3373ffffffffffffffffffffffffffffffffffffffff166000826040516108409190610c8a565b908152602001604051809103902060010160009054906101000a900473ffffffffffffffffffffffffffffffffffffffff1673ffffffffffffffffffffffffffffffffffffffff16146108c8576040517f08c379a00000000000000000000000000000000000000000000000000000000081526004016108bf90610de4565b60405180910390fd5b60016000826040516108da9190610c8a565b908152602001604051809103902060040160006101000a81548160ff0219169083151502179055507ff8851a4de80d939fe406a2775ee247e01a917a766cda47825933a3c35b2496808133604051610933929190610d1c565b60405180910390a150565b82805461094a90610f76565b90600052602060002090601f01602090048101928261096c57600085556109b3565b82601f1061098557805160ff19168380011785556109b3565b828001600101855582156109b3579182015b828111156109b2578251825591602001919060010190610997565b5b5090506109c091906109c4565b5090565b5b808211156109dd5760008160009055506001016109c5565b5090565b60006109f46109ef84610e95565b610e64565b905082815260208101848484011115610a0c57600080fd5b610a17848285610f34565b509392505050565b600081359050610a2e81611017565b92915050565b600082601f830112610a4557600080fd5b8135610a558482602086016109e1565b91505092915050565b600060208284031215610a7057600080fd5b600082013567ffffffffffffffff811115610a8a57600080fd5b610a9684828501610a34565b91505092915050565b60008060408385031215610ab257600080fd5b600083013567ffffffffffffffff811115610acc57600080fd5b610ad885828601610a34565b9250506020610ae985828601610a1f565b9150509250929050565b610afc81610eec565b82525050565b610b0b81610efe565b82525050565b6000610b1c82610ec5565b610b268185610ed0565b9350610b36818560208601610f43565b610b3f81611006565b840191505092915050565b6000610b5582610ec5565b610b5f8185610ee1565b9350610b6f818560208601610f43565b80840191505092915050565b6000610b88601683610ed0565b91507f4e6f74204f776e6572206f6620746869732063657274000000000000000000006000830152602082019050919050565b6000610bc8601983610ed0565b91507f436572746966696361746520646f65736e2774206578697374000000000000006000830152602082019050919050565b6000610c08601a83610ed0565b91507f436572746966696361746520646f6573206e6f742065786973740000000000006000830152602082019050919050565b6000610c48601a83610ed0565b91507f436572746966696361746520616c7265616479206578697374730000000000006000830152602082019050919050565b610c8481610f2a565b82525050565b6000610c968284610b4a565b915081905092915050565b6000606082019050610cb66000830186610af3565b610cc36020830185610af3565b610cd06040830184610b02565b949350505050565b6000602082019050610ced6000830184610b02565b92915050565b6000604082019050610d086000830185610b02565b610d156020830184610b02565b9392505050565b60006040820190508181036000830152610d368185610b11565b9050610d456020830184610af3565b9392505050565b60006060820190508181036000830152610d668186610b11565b9050610d756020830185610af3565b610d826040830184610af3565b949350505050565b600060a0820190508181036000830152610da48188610b11565b9050610db36020830187610af3565b610dc06040830186610af3565b610dcd6060830185610c7b565b610dda6080830184610b02565b9695505050505050565b60006020820190508181036000830152610dfd81610b7b565b9050919050565b60006020820190508181036000830152610e1d81610bbb565b9050919050565b60006020820190508181036000830152610e3d81610bfb565b9050919050565b60006020820190508181036000830152610e5d81610c3b565b9050919050565b6000604051905081810181811067ffffffffffffffff82111715610e8b57610e8a610fd7565b5b8060405250919050565b600067ffffffffffffffff821115610eb057610eaf610fd7565b5b601f19601f8301169050602081019050919050565b600081519050919050565b600082825260208201905092915050565b600081905092915050565b6000610ef782610f0a565b9050919050565b60008115159050919050565b600073ffffffffffffffffffffffffffffffffffffffff82169050919050565b6000819050919050565b82818337600083830152505050565b60005b83811015610f61578082015181840152602081019050610f46565b83811115610f70576000848401525b50505050565b60006002820490506001821680610f8e57607f821691505b60208210811415610fa257610fa1610fa8565b5b50919050565b7f4e487b7100000000000000000000000000000000000000000000000000000000600052602260045260246000fd5b7f4e487b7100000000000000000000000000000000000000000000000000000000600052604160045260246000fd5b6000601f19601f8301169050919050565b61102081610eec565b811461102b57600080fd5b5056fea26469706673582212200237953b731c9800897b828e1e0a61469719b6dcb8bb5947ec99cd4b985a975664736f6c63430008000033",
  "immutableReferences": {},
  "source": "// SPDX-License-Identifier: Unlicense\r\npragma solidity ^0.8.0;\r\n\r\ncontract CertManager {\r\n    struct Cert {\r\n        string cert_id;\r\n        address owner;\r\n        address recipient;\r\n        uint256 date;\r\n        bool revoked;\r\n    }\r\n\r\n    mapping(string => Cert) public certificates;\r\n    mapping(string => bool) public doesExist;\r\n\r\n    event CertIssued(string cert_id, address owner, address recipient);\r\n    event CertRevoked(string cert_id, address owner);\r\n\r\n    constructor() {\r\n\r\n    }\r\n\r\n    function issueCert(string memory id, address cert_recipient) public {\r\n        require(!doesExist[id], \"Certificate already exists\");\r\n\r\n        certificates[id] = Cert({\r\n            cert_id: id,\r\n            owner: msg.sender,\r\n            recipient: cert_recipient,\r\n            date: block.timestamp,\r\n            revoked: false\r\n        });\r\n        doesExist[id] = true;\r\n        emit CertIssued(id, msg.sender, cert_recipient);\r\n    }\r\n\r\n    function revokeCert(string memory id) public {\r\n        require(doesExist[id], \"Certificate doesn't exist\");\r\n        require(certificates[id].owner == msg.sender, \"Not Owner of this cert\");\r\n        certificates[id].revoked = true;\r\n        emit CertRevoked(id, msg.sender);\r\n    }\r\n\r\n    function verifyCertificate(string memory id) public view returns (bool exists, bool revoked) {\r\n        require(doesExist[id], \"Certificate does not exist\");\r\n        return (true, certificates[id].revoked);\r\n    }   \r\n\r\n\r\n    function getCertDetails(string memory id) public view returns (address owner, address recipient, bool revoked) {\r\n        require(doesExist[id], \"Certificate does not exist\");\r\n        Cert memory cert = certificates[id];\r\n        return (cert.owner, cert.recipient, cert.revoked);\r\n    }\r\n}\r\n",
  "sourcePath": "C:\\Users\\dhruv\\Downloads\\University\\CSC 196D\\FInal Project\\DAAPer---CSC196D\\contracts\\CertManager.sol",
  "compiler": {
    "name": "solc",
    "version": "0.8.0+commit.c7dfd78e.Emscripten.clang"
  },
  "schemaVersion": "3.4.16",
  "updatedAt": "2024-11-28T23:31:05.714Z",
  "networkType": "ethereum",
  "devdoc": {
    "kind": "dev",
    "methods": {},
    "version": 1
  },
  "userdoc": {
    "kind": "user",
    "methods": {},
    "version": 1
  }
}