{
  "contractName": "CertificateSystem",
  "abi": [
    {
      "inputs": [
        {
          "internalType": "string",
          "name": "",
          "type": "string"
        }
      ],
      "name": "issuedCertificates",
      "outputs": [
        {
          "internalType": "bool",
          "name": "",
          "type": "bool"
        }
      ],
      "stateMutability": "view",
      "type": "function",
      "constant": true
    },
    {
      "inputs": [
        {
          "internalType": "address",
          "name": "",
          "type": "address"
        }
      ],
      "name": "issuers",
      "outputs": [
        {
          "internalType": "bool",
          "name": "",
          "type": "bool"
        }
      ],
      "stateMutability": "view",
      "type": "function",
      "constant": true
    },
    {
      "inputs": [
        {
          "internalType": "string",
          "name": "certificateID",
          "type": "string"
        }
      ],
      "name": "issueCertificate",
      "outputs": [],
      "stateMutability": "nonpayable",
      "type": "function"
    },
    {
      "inputs": [
        {
          "internalType": "string",
          "name": "certificateID",
          "type": "string"
        }
      ],
      "name": "verifyCertificate",
      "outputs": [
        {
          "internalType": "bool",
          "name": "",
          "type": "bool"
        }
      ],
      "stateMutability": "view",
      "type": "function",
      "constant": true
    },
    {
      "inputs": [
        {
          "internalType": "address",
          "name": "issuer",
          "type": "address"
        }
      ],
      "name": "addIssuer",
      "outputs": [],
      "stateMutability": "nonpayable",
      "type": "function"
    },
    {
      "inputs": [
        {
          "internalType": "string",
          "name": "certificateID",
          "type": "string"
        }
      ],
      "name": "revokeCertificate",
      "outputs": [],
      "stateMutability": "nonpayable",
      "type": "function"
    }
  ],
  "bytecode": "0x608060405234801561001057600080fd5b50610939806100206000396000f3fe608060405234801561001057600080fd5b50600436106100625760003560e01c806303dac14714610067578063142e15421461009757806320694db0146100b357806338a7543e146100cf5780638b23d875146100ff578063a90547a61461012f575b600080fd5b610081600480360381019061007c9190610536565b61014b565b60405161008e919061071a565b60405180910390f35b6100b160048036038101906100ac9190610536565b610181565b005b6100cd60048036038101906100c8919061050d565b6102b1565b005b6100e960048036038101906100e4919061050d565b61030b565b6040516100f6919061071a565b60405180910390f35b61011960048036038101906101149190610536565b61032b565b604051610126919061071a565b60405180910390f35b61014960048036038101906101449190610536565b610360565b005b6001818051602081018201805184825260208301602085012081835280955050505050506000915054906101000a900460ff1681565b6000803373ffffffffffffffffffffffffffffffffffffffff1673ffffffffffffffffffffffffffffffffffffffff16815260200190815260200160002060009054906101000a900460ff1661020c576040517f08c379a000000000000000000000000000000000000000000000000000000000815260040161020390610735565b60405180910390fd5b60018160405161021c9190610703565b908152602001604051809103902060009054906101000a900460ff16610277576040517f08c379a000000000000000000000000000000000000000000000000000000000815260040161026e90610755565b60405180910390fd5b60006001826040516102899190610703565b908152602001604051809103902060006101000a81548160ff02191690831515021790555050565b60016000808373ffffffffffffffffffffffffffffffffffffffff1673ffffffffffffffffffffffffffffffffffffffff16815260200190815260200160002060006101000a81548160ff02191690831515021790555050565b60006020528060005260406000206000915054906101000a900460ff1681565b600060018260405161033d9190610703565b908152602001604051809103902060009054906101000a900460ff169050919050565b6000803373ffffffffffffffffffffffffffffffffffffffff1673ffffffffffffffffffffffffffffffffffffffff16815260200190815260200160002060009054906101000a900460ff166103eb576040517f08c379a00000000000000000000000000000000000000000000000000000000081526004016103e290610775565b60405180910390fd5b6001816040516103fb9190610703565b908152602001604051809103902060009054906101000a900460ff1615610457576040517f08c379a000000000000000000000000000000000000000000000000000000000815260040161044e90610795565b60405180910390fd5b600180826040516104689190610703565b908152602001604051809103902060006101000a81548160ff02191690831515021790555050565b60006104a361049e846107e6565b6107b5565b9050828152602081018484840111156104bb57600080fd5b6104c684828561087b565b509392505050565b6000813590506104dd816108ec565b92915050565b600082601f8301126104f457600080fd5b8135610504848260208601610490565b91505092915050565b60006020828403121561051f57600080fd5b600061052d848285016104ce565b91505092915050565b60006020828403121561054857600080fd5b600082013567ffffffffffffffff81111561056257600080fd5b61056e848285016104e3565b91505092915050565b6105808161084f565b82525050565b600061059182610816565b61059b8185610832565b93506105ab81856020860161088a565b80840191505092915050565b60006105c4602d83610821565b91507f596f7520617265206e6f7420617574686f72697a656420746f207265766f6b6560008301527f20636572746966696361746573000000000000000000000000000000000000006020830152604082019050919050565b600061062a601583610821565b91507f4365727469666963617465206e6f7420666f756e6400000000000000000000006000830152602082019050919050565b600061066a602c83610821565b91507f596f7520617265206e6f7420617574686f72697a656420746f2069737375652060008301527f63657274696669636174657300000000000000000000000000000000000000006020830152604082019050919050565b60006106d0601a83610821565b91507f436572746966696361746520616c7265616479206973737565640000000000006000830152602082019050919050565b600061070f8284610586565b915081905092915050565b600060208201905061072f6000830184610577565b92915050565b6000602082019050818103600083015261074e816105b7565b9050919050565b6000602082019050818103600083015261076e8161061d565b9050919050565b6000602082019050818103600083015261078e8161065d565b9050919050565b600060208201905081810360008301526107ae816106c3565b9050919050565b6000604051905081810181811067ffffffffffffffff821117156107dc576107db6108bd565b5b8060405250919050565b600067ffffffffffffffff821115610801576108006108bd565b5b601f19601f8301169050602081019050919050565b600081519050919050565b600082825260208201905092915050565b600081905092915050565b60006108488261085b565b9050919050565b60008115159050919050565b600073ffffffffffffffffffffffffffffffffffffffff82169050919050565b82818337600083830152505050565b60005b838110156108a857808201518184015260208101905061088d565b838111156108b7576000848401525b50505050565b7f4e487b7100000000000000000000000000000000000000000000000000000000600052604160045260246000fd5b6108f58161083d565b811461090057600080fd5b5056fea264697066735822122059ca53b60f5b3edda4219f75df053521378b05b621c3d04d0348cf6bdb8e70cc64736f6c63430008000033",
  "immutableReferences": {},
  "source": "// SPDX-License-Identifier: MIT\r\npragma solidity ^0.8.0;\r\n\r\ncontract CertificateSystem {\r\n    mapping(address => bool) public issuers;\r\n    mapping(string => bool) public issuedCertificates;\r\n    \r\n    // Issue a certificate\r\n    function issueCertificate(string memory certificateID) public {\r\n        require(issuers[msg.sender], \"You are not authorized to issue certificates\");\r\n        require(!issuedCertificates[certificateID], \"Certificate already issued\");\r\n        \r\n        issuedCertificates[certificateID] = true;\r\n    }\r\n    \r\n    // Verify a certificate\r\n    function verifyCertificate(string memory certificateID) public view returns (bool) {\r\n        return issuedCertificates[certificateID];\r\n    }\r\n    \r\n    // Add an issuer\r\n    function addIssuer(address issuer) public {\r\n        issuers[issuer] = true;\r\n    }\r\n    \r\n    // Revoke a certificate\r\n    function revokeCertificate(string memory certificateID) public {\r\n        require(issuers[msg.sender], \"You are not authorized to revoke certificates\");\r\n        require(issuedCertificates[certificateID], \"Certificate not found\");\r\n        \r\n        issuedCertificates[certificateID] = false;\r\n    }\r\n}\r\n",
  "sourcePath": "C:\\Users\\dhruv\\Downloads\\University\\CSC 196D\\FInal Project\\DAAPer---CSC196D\\contracts\\CertificateSystem.sol",
  "compiler": {
    "name": "solc",
    "version": "0.8.0+commit.c7dfd78e.Emscripten.clang"
  },
  "schemaVersion": "3.4.16",
  "updatedAt": "2024-11-11T02:06:07.743Z",
  "networkType": "ethereum",
  "devdoc": {
    "kind": "dev",
    "methods": {},
    "version": 1
  },
  "userdoc": {
    "kind": "user",
    "methods": {},
    "version": 1
  }
}