{
  "contractName": "CertManager",
  "abi": [
    {
      "inputs": [],
      "stateMutability": "nonpayable",
      "type": "constructor"
    },
    {
      "anonymous": false,
      "inputs": [
        {
          "indexed": false,
          "internalType": "string",
          "name": "cert_id",
          "type": "string"
        },
        {
          "indexed": false,
          "internalType": "address",
          "name": "owner",
          "type": "address"
        },
        {
          "indexed": false,
          "internalType": "address",
          "name": "recipient",
          "type": "address"
        }
      ],
      "name": "CertIssued",
      "type": "event"
    },
    {
      "anonymous": false,
      "inputs": [
        {
          "indexed": false,
          "internalType": "string",
          "name": "cert_id",
          "type": "string"
        },
        {
          "indexed": false,
          "internalType": "address",
          "name": "owner",
          "type": "address"
        }
      ],
      "name": "CertRevoked",
      "type": "event"
    },
    {
      "inputs": [
        {
          "internalType": "string",
          "name": "",
          "type": "string"
        }
      ],
      "name": "certificates",
      "outputs": [
        {
          "internalType": "string",
          "name": "cert_id",
          "type": "string"
        },
        {
          "internalType": "address",
          "name": "owner",
          "type": "address"
        },
        {
          "internalType": "address",
          "name": "recipient",
          "type": "address"
        },
        {
          "internalType": "uint256",
          "name": "date",
          "type": "uint256"
        },
        {
          "internalType": "bool",
          "name": "revoked",
          "type": "bool"
        }
      ],
      "stateMutability": "view",
      "type": "function",
      "constant": true
    },
    {
      "inputs": [
        {
          "internalType": "string",
          "name": "",
          "type": "string"
        }
      ],
      "name": "doesExist",
      "outputs": [
        {
          "internalType": "bool",
          "name": "",
          "type": "bool"
        }
      ],
      "stateMutability": "view",
      "type": "function",
      "constant": true
    },
    {
      "inputs": [
        {
          "internalType": "string",
          "name": "id",
          "type": "string"
        },
        {
          "internalType": "address",
          "name": "cert_recipient",
          "type": "address"
        }
      ],
      "name": "issueCert",
      "outputs": [],
      "stateMutability": "nonpayable",
      "type": "function"
    },
    {
      "inputs": [
        {
          "internalType": "string",
          "name": "id",
          "type": "string"
        }
      ],
      "name": "revokeCert",
      "outputs": [],
      "stateMutability": "nonpayable",
      "type": "function"
    },
    {
      "inputs": [
        {
          "internalType": "string",
          "name": "id",
          "type": "string"
        }
      ],
      "name": "verifyCertificate",
      "outputs": [
        {
          "internalType": "bool",
          "name": "",
          "type": "bool"
        }
      ],
      "stateMutability": "view",
      "type": "function",
      "constant": true
    },
    {
      "inputs": [
        {
          "internalType": "string",
          "name": "id",
          "type": "string"
        }
      ],
      "name": "getCertDetails",
      "outputs": [
        {
          "internalType": "address",
          "name": "owner",
          "type": "address"
        },
        {
          "internalType": "address",
          "name": "recipient",
          "type": "address"
        },
        {
          "internalType": "bool",
          "name": "revoked",
          "type": "bool"
        }
      ],
      "stateMutability": "view",
      "type": "function",
      "constant": true
    }
  ],
  "bytecode": "0x608060405234801561001057600080fd5b50611008806100206000396000f3fe608060405234801561001057600080fd5b50600436106100625760003560e01c8063496144cd146100675780638b23d875146100835780638f2b91ea146100b357806394bbde2a146100e7578063be2e232514610117578063e0eb38d614610149575b600080fd5b610081600480360381019061007c9190610a6c565b610165565b005b61009d60048036038101906100989190610a2b565b610392565b6040516100aa9190610ca5565b60405180910390f35b6100cd60048036038101906100c89190610a2b565b610408565b6040516100de959493929190610d2e565b60405180910390f35b61010160048036038101906100fc9190610a2b565b610529565b60405161010e9190610ca5565b60405180910390f35b610131600480360381019061012c9190610a2b565b61055f565b60405161014093929190610c6e565b60405180910390f35b610163600480360381019061015e9190610a2b565b61077b565b005b6001826040516101759190610c57565b908152602001604051809103902060009054906101000a900460ff16156101d1576040517f08c379a00000000000000000000000000000000000000000000000000000000081526004016101c890610de8565b60405180910390fd5b6040518060a001604052808381526020013373ffffffffffffffffffffffffffffffffffffffff1681526020018273ffffffffffffffffffffffffffffffffffffffff168152602001428152602001600015158152506000836040516102379190610c57565b9081526020016040518091039020600082015181600001908051906020019061026192919061090b565b5060208201518160010160006101000a81548173ffffffffffffffffffffffffffffffffffffffff021916908373ffffffffffffffffffffffffffffffffffffffff16021790555060408201518160020160006101000a81548173ffffffffffffffffffffffffffffffffffffffff021916908373ffffffffffffffffffffffffffffffffffffffff1602179055506060820151816003015560808201518160040160006101000a81548160ff0219169083151502179055509050506001808360405161032e9190610c57565b908152602001604051809103902060006101000a81548160ff0219169083151502179055507fdfa30a43560525881cf6364d38c7d6febf2b442877de474f0af29881710a37fd82338360405161038693929190610cf0565b60405180910390a15050565b60006001826040516103a49190610c57565b908152602001604051809103902060009054906101000a900460ff166103ff576040517f08c379a00000000000000000000000000000000000000000000000000000000081526004016103f690610dc8565b60405180910390fd5b60019050919050565b60008180516020810182018051848252602083016020850120818352809550505050505060009150905080600001805461044190610f1a565b80601f016020809104026020016040519081016040528092919081815260200182805461046d90610f1a565b80156104ba5780601f1061048f576101008083540402835291602001916104ba565b820191906000526020600020905b81548152906001019060200180831161049d57829003601f168201915b5050505050908060010160009054906101000a900473ffffffffffffffffffffffffffffffffffffffff16908060020160009054906101000a900473ffffffffffffffffffffffffffffffffffffffff16908060030154908060040160009054906101000a900460ff16905085565b6001818051602081018201805184825260208301602085012081835280955050505050506000915054906101000a900460ff1681565b60008060006001846040516105749190610c57565b908152602001604051809103902060009054906101000a900460ff166105cf576040517f08c379a00000000000000000000000000000000000000000000000000000000081526004016105c690610dc8565b60405180910390fd5b600080856040516105e09190610c57565b90815260200160405180910390206040518060a001604052908160008201805461060990610f1a565b80601f016020809104026020016040519081016040528092919081815260200182805461063590610f1a565b80156106825780601f1061065757610100808354040283529160200191610682565b820191906000526020600020905b81548152906001019060200180831161066557829003601f168201915b505050505081526020016001820160009054906101000a900473ffffffffffffffffffffffffffffffffffffffff1673ffffffffffffffffffffffffffffffffffffffff1673ffffffffffffffffffffffffffffffffffffffff1681526020016002820160009054906101000a900473ffffffffffffffffffffffffffffffffffffffff1673ffffffffffffffffffffffffffffffffffffffff1673ffffffffffffffffffffffffffffffffffffffff168152602001600382015481526020016004820160009054906101000a900460ff1615151515815250509050806020015181604001518260800151935093509350509193909250565b60018160405161078b9190610c57565b908152602001604051809103902060009054906101000a900460ff166107e6576040517f08c379a00000000000000000000000000000000000000000000000000000000081526004016107dd90610da8565b60405180910390fd5b3373ffffffffffffffffffffffffffffffffffffffff1660008260405161080d9190610c57565b908152602001604051809103902060010160009054906101000a900473ffffffffffffffffffffffffffffffffffffffff1673ffffffffffffffffffffffffffffffffffffffff1614610895576040517f08c379a000000000000000000000000000000000000000000000000000000000815260040161088c90610d88565b60405180910390fd5b60016000826040516108a79190610c57565b908152602001604051809103902060040160006101000a81548160ff0219169083151502179055507ff8851a4de80d939fe406a2775ee247e01a917a766cda47825933a3c35b2496808133604051610900929190610cc0565b60405180910390a150565b82805461091790610f1a565b90600052602060002090601f0160209004810192826109395760008555610980565b82601f1061095257805160ff1916838001178555610980565b82800160010185558215610980579182015b8281111561097f578251825591602001919060010190610964565b5b50905061098d9190610991565b5090565b5b808211156109aa576000816000905550600101610992565b5090565b60006109c16109bc84610e39565b610e08565b9050828152602081018484840111156109d957600080fd5b6109e4848285610ed8565b509392505050565b6000813590506109fb81610fbb565b92915050565b600082601f830112610a1257600080fd5b8135610a228482602086016109ae565b91505092915050565b600060208284031215610a3d57600080fd5b600082013567ffffffffffffffff811115610a5757600080fd5b610a6384828501610a01565b91505092915050565b60008060408385031215610a7f57600080fd5b600083013567ffffffffffffffff811115610a9957600080fd5b610aa585828601610a01565b9250506020610ab6858286016109ec565b9150509250929050565b610ac981610e90565b82525050565b610ad881610ea2565b82525050565b6000610ae982610e69565b610af38185610e74565b9350610b03818560208601610ee7565b610b0c81610faa565b840191505092915050565b6000610b2282610e69565b610b2c8185610e85565b9350610b3c818560208601610ee7565b80840191505092915050565b6000610b55601683610e74565b91507f4e6f74204f776e6572206f6620746869732063657274000000000000000000006000830152602082019050919050565b6000610b95601983610e74565b91507f436572746966696361746520646f65736e2774206578697374000000000000006000830152602082019050919050565b6000610bd5601a83610e74565b91507f436572746966696361746520646f6573206e6f742065786973740000000000006000830152602082019050919050565b6000610c15601a83610e74565b91507f436572746966696361746520616c7265616479206578697374730000000000006000830152602082019050919050565b610c5181610ece565b82525050565b6000610c638284610b17565b915081905092915050565b6000606082019050610c836000830186610ac0565b610c906020830185610ac0565b610c9d6040830184610acf565b949350505050565b6000602082019050610cba6000830184610acf565b92915050565b60006040820190508181036000830152610cda8185610ade565b9050610ce96020830184610ac0565b9392505050565b60006060820190508181036000830152610d0a8186610ade565b9050610d196020830185610ac0565b610d266040830184610ac0565b949350505050565b600060a0820190508181036000830152610d488188610ade565b9050610d576020830187610ac0565b610d646040830186610ac0565b610d716060830185610c48565b610d7e6080830184610acf565b9695505050505050565b60006020820190508181036000830152610da181610b48565b9050919050565b60006020820190508181036000830152610dc181610b88565b9050919050565b60006020820190508181036000830152610de181610bc8565b9050919050565b60006020820190508181036000830152610e0181610c08565b9050919050565b6000604051905081810181811067ffffffffffffffff82111715610e2f57610e2e610f7b565b5b8060405250919050565b600067ffffffffffffffff821115610e5457610e53610f7b565b5b601f19601f8301169050602081019050919050565b600081519050919050565b600082825260208201905092915050565b600081905092915050565b6000610e9b82610eae565b9050919050565b60008115159050919050565b600073ffffffffffffffffffffffffffffffffffffffff82169050919050565b6000819050919050565b82818337600083830152505050565b60005b83811015610f05578082015181840152602081019050610eea565b83811115610f14576000848401525b50505050565b60006002820490506001821680610f3257607f821691505b60208210811415610f4657610f45610f4c565b5b50919050565b7f4e487b7100000000000000000000000000000000000000000000000000000000600052602260045260246000fd5b7f4e487b7100000000000000000000000000000000000000000000000000000000600052604160045260246000fd5b6000601f19601f8301169050919050565b610fc481610e90565b8114610fcf57600080fd5b5056fea2646970667358221220333177ea39973ca34d27c8414dd40063b2f6046f69e53cc0bb1a12f9ed9a441064736f6c63430008000033",
  "immutableReferences": {},
  "source": "// SPDX-License-Identifier: Unlicense\npragma solidity ^0.8.0;\n\ncontract CertManager {\n    struct Cert {\n        string cert_id;\n        address owner;\n        address recipient;\n        uint256 date;\n        bool revoked;\n    }\n\n    mapping(string => Cert) public certificates;\n    mapping(string => bool) public doesExist;\n\n    event CertIssued(string cert_id, address owner, address recipient);\n    event CertRevoked(string cert_id, address owner);\n\n    constructor() {\n\n    }\n\n    function issueCert(string memory id, address cert_recipient) public {\n        require(!doesExist[id], \"Certificate already exists\");\n\n        certificates[id] = Cert({\n            cert_id: id,\n            owner: msg.sender,\n            recipient: cert_recipient,\n            date: block.timestamp,\n            revoked: false\n        });\n        doesExist[id] = true;\n        emit CertIssued(id, msg.sender, cert_recipient);\n    }\n\n    function revokeCert(string memory id) public {\n        require(doesExist[id], \"Certificate doesn't exist\");\n        require(certificates[id].owner == msg.sender, \"Not Owner of this cert\");\n        certificates[id].revoked = true;\n        emit CertRevoked(id, msg.sender);\n    }\n\n      function verifyCertificate(string memory id) public view returns (bool) {\n        require(doesExist[id], \"Certificate does not exist\");\n        return true;\n    }\n\n\n    function getCertDetails(string memory id) public view returns (address owner, address recipient, bool revoked) {\n        require(doesExist[id], \"Certificate does not exist\");\n        Cert memory cert = certificates[id];\n        return (cert.owner, cert.recipient, cert.revoked);\n    }\n}\n",
  "sourcePath": "/home/pencilsharp333/Documents/196/DAAPer---CSC196D/contracts/CertManager.sol",
  "compiler": {
    "name": "solc",
    "version": "0.8.0+commit.c7dfd78e.Emscripten.clang"
  },
  "schemaVersion": "3.4.16",
  "updatedAt": "2024-11-23T20:48:46.680Z",
  "networkType": "ethereum",
  "devdoc": {
    "kind": "dev",
    "methods": {},
    "version": 1
  },
  "userdoc": {
    "kind": "user",
    "methods": {},
    "version": 1
  }
}