{
  "contractName": "UserRoles",
  "abi": [
    {
      "inputs": [],
      "stateMutability": "nonpayable",
      "type": "constructor"
    },
    {
      "inputs": [],
      "name": "owner",
      "outputs": [
        {
          "internalType": "address",
          "name": "",
          "type": "address"
        }
      ],
      "stateMutability": "view",
      "type": "function",
      "constant": true
    },
    {
      "inputs": [
        {
          "internalType": "address",
          "name": "user",
          "type": "address"
        },
        {
          "internalType": "enum UserRoles.Role",
          "name": "role",
          "type": "uint8"
        }
      ],
      "name": "setUserRole",
      "outputs": [],
      "stateMutability": "nonpayable",
      "type": "function"
    },
    {
      "inputs": [
        {
          "internalType": "address",
          "name": "user",
          "type": "address"
        }
      ],
      "name": "getUserRole",
      "outputs": [
        {
          "internalType": "enum UserRoles.Role",
          "name": "",
          "type": "uint8"
        }
      ],
      "stateMutability": "view",
      "type": "function",
      "constant": true
    },
    {
      "inputs": [
        {
          "internalType": "address",
          "name": "user",
          "type": "address"
        }
      ],
      "name": "isIssuer",
      "outputs": [
        {
          "internalType": "bool",
          "name": "",
          "type": "bool"
        }
      ],
      "stateMutability": "view",
      "type": "function",
      "constant": true
    },
    {
      "inputs": [
        {
          "internalType": "address",
          "name": "user",
          "type": "address"
        }
      ],
      "name": "isVerifier",
      "outputs": [
        {
          "internalType": "bool",
          "name": "",
          "type": "bool"
        }
      ],
      "stateMutability": "view",
      "type": "function",
      "constant": true
    },
    {
      "inputs": [
        {
          "internalType": "address",
          "name": "user",
          "type": "address"
        }
      ],
      "name": "isRecipient",
      "outputs": [
        {
          "internalType": "bool",
          "name": "",
          "type": "bool"
        }
      ],
      "stateMutability": "view",
      "type": "function",
      "constant": true
    }
  ],
  "bytecode": "0x608060405234801561001057600080fd5b5033600160006101000a81548173ffffffffffffffffffffffffffffffffffffffff021916908373ffffffffffffffffffffffffffffffffffffffff1602179055506107fa806100616000396000f3fe608060405234801561001057600080fd5b50600436106100625760003560e01c806303a6961114610067578063278208511461008357806333105218146100b3578063877b9a67146100e35780638c5143ea146101135780638da5cb5b14610143575b600080fd5b610081600480360381019061007c91906105a6565b610161565b005b61009d6004803603810190610098919061057d565b610281565b6040516100aa91906106ab565b60405180910390f35b6100cd60048036038101906100c8919061057d565b6102d6565b6040516100da9190610690565b60405180910390f35b6100fd60048036038101906100f8919061057d565b61039e565b60405161010a9190610690565b60405180910390f35b61012d6004803603810190610128919061057d565b610466565b60405161013a9190610690565b60405180910390f35b61014b61052d565b6040516101589190610675565b60405180910390f35b600160009054906101000a900473ffffffffffffffffffffffffffffffffffffffff1673ffffffffffffffffffffffffffffffffffffffff163373ffffffffffffffffffffffffffffffffffffffff16146101f1576040517f08c379a00000000000000000000000000000000000000000000000000000000081526004016101e8906106c6565b60405180910390fd5b806000808473ffffffffffffffffffffffffffffffffffffffff1673ffffffffffffffffffffffffffffffffffffffff16815260200190815260200160002060006101000a81548160ff02191690836003811115610278577f4e487b7100000000000000000000000000000000000000000000000000000000600052602160045260246000fd5b02179055505050565b60008060008373ffffffffffffffffffffffffffffffffffffffff1673ffffffffffffffffffffffffffffffffffffffff16815260200190815260200160002060009054906101000a900460ff169050919050565b600060026003811115610312577f4e487b7100000000000000000000000000000000000000000000000000000000600052602160045260246000fd5b6000808473ffffffffffffffffffffffffffffffffffffffff1673ffffffffffffffffffffffffffffffffffffffff16815260200190815260200160002060009054906101000a900460ff166003811115610396577f4e487b7100000000000000000000000000000000000000000000000000000000600052602160045260246000fd5b149050919050565b6000600160038111156103da577f4e487b7100000000000000000000000000000000000000000000000000000000600052602160045260246000fd5b6000808473ffffffffffffffffffffffffffffffffffffffff1673ffffffffffffffffffffffffffffffffffffffff16815260200190815260200160002060009054906101000a900460ff16600381111561045e577f4e487b7100000000000000000000000000000000000000000000000000000000600052602160045260246000fd5b149050919050565b60006003808111156104a1577f4e487b7100000000000000000000000000000000000000000000000000000000600052602160045260246000fd5b6000808473ffffffffffffffffffffffffffffffffffffffff1673ffffffffffffffffffffffffffffffffffffffff16815260200190815260200160002060009054906101000a900460ff166003811115610525577f4e487b7100000000000000000000000000000000000000000000000000000000600052602160045260246000fd5b149050919050565b600160009054906101000a900473ffffffffffffffffffffffffffffffffffffffff1681565b6000813590506105628161079d565b92915050565b600081359050610577816107b4565b92915050565b60006020828403121561058f57600080fd5b600061059d84828501610553565b91505092915050565b600080604083850312156105b957600080fd5b60006105c785828601610553565b92505060206105d885828601610568565b9150509250929050565b6105eb816106f7565b82525050565b6105fa81610709565b82525050565b61060981610748565b82525050565b600061061c6026836106e6565b91507f4f6e6c7920746865206f776e65722063616e20706572666f726d20746869732060008301527f616374696f6e00000000000000000000000000000000000000000000000000006020830152604082019050919050565b600060208201905061068a60008301846105e2565b92915050565b60006020820190506106a560008301846105f1565b92915050565b60006020820190506106c06000830184610600565b92915050565b600060208201905081810360008301526106df8161060f565b9050919050565b600082825260208201905092915050565b600061070282610728565b9050919050565b60008115159050919050565b600081905061072382610789565b919050565b600073ffffffffffffffffffffffffffffffffffffffff82169050919050565b600061075382610715565b9050919050565b7f4e487b7100000000000000000000000000000000000000000000000000000000600052602160045260246000fd5b6004811061079a5761079961075a565b5b50565b6107a6816106f7565b81146107b157600080fd5b50565b600481106107c157600080fd5b5056fea264697066735822122049c5f63da0f827c898466a43640a3b6ff37f5193639ad86a8a84ad30e8c3124f64736f6c63430008000033",
  "immutableReferences": {},
  "source": "// SPDX-License-Identifier: UNLICENSED\npragma solidity ^0.8.0;\n\ncontract UserRoles {\n    enum Role { None, Issuer, Verifier, Recipient }\n\n    mapping(address => Role) private userRoles;\n    address public owner;\n\n    // Set the deployer as the owner\n    constructor() {\n        owner = msg.sender;\n    }\n\n    // Modifier to check only owner\n    modifier onlyOwner() {\n        require(msg.sender == owner, \"Only the owner can perform this action\");\n        _;\n    }\n\n    // Function to assign roles\n    function setUserRole(address user, Role role) public onlyOwner {\n        userRoles[user] = role;\n    }\n\n    // Function to get user role\n    function getUserRole(address user) public view returns (Role) {\n        return userRoles[user];\n    }\n\n    // Helper functions to check roles\n    function isIssuer(address user) public view returns (bool) {\n        return userRoles[user] == Role.Issuer;\n    }\n\n    function isVerifier(address user) public view returns (bool) {\n        return userRoles[user] == Role.Verifier;\n    }\n\n    function isRecipient(address user) public view returns (bool) {\n        return userRoles[user] == Role.Recipient;\n    }\n}\n",
  "sourcePath": "/home/pencilsharp333/Documents/196/DAAPer---CSC196D/contracts/UserRoles.sol",
  "compiler": {
    "name": "solc",
    "version": "0.8.0+commit.c7dfd78e.Emscripten.clang"
  },
  "schemaVersion": "3.4.16",
  "updatedAt": "2024-11-23T20:48:46.674Z",
  "networkType": "ethereum",
  "devdoc": {
    "kind": "dev",
    "methods": {},
    "version": 1
  },
  "userdoc": {
    "kind": "user",
    "methods": {},
    "version": 1
  }
}